:020000040800F2
:1000000000000120610200080000000071060008E5
:10001000B1020008B1020008B102000800000000AF
:10002000000000000000000000000000B102000815
:10003000B102000800000000B1020008B10200088F
:10004000B1020008B1020008B1020008B1020008C4
:10005000B1020008B1020008B1020008B1020008B4
:10006000B1020008B1020008B1020008B1020008A4
:10007000B1020008B1020008B1020008B102000894
:10008000B1020008B1020008B1020008B102000884
:10009000B1020008B1020008B1020008B102000874
:1000A000B1020008B1020008B1020008B102000864
:1000B000B1020008B1020008B1020008B102000854
:1000C000B1020008B1020008B1020008B102000844
:1000D000B1020008B1020008B1020008B102000834
:1000E000B1020008B1020008B1020008B102000824
:1000F000B1020008B1020008B1020008B102000814
:10010000B1020008B1020008B1020008B102000803
:10011000B1020008B1020008B1020008B1020008F3
:10012000B1020008B1020008B1020008B1020008E3
:1001300000000000000000000000000000000000BF
:1001400000000000000000000000000000000000AF
:10015000000000000000000000000000000000009F
:10016000000000000000000000000000000000008F
:10017000000000000000000000000000000000007F
:10018000000000000000000000000000000000006F
:10019000000000000000000000000000000000005F
:1001A000000000000000000000000000000000004F
:1001B000000000000000000000000000000000003F
:1001C000000000000000000000000000000000002F
:1001D0000000000000000000000000005FF8E0F1F7
:1001E00080B483B000AF45F2E043C0F600037B600B
:1001F00040F20003C2F200033B607A683B689A4217
:1002000013D00BE07B681A683B681A603B6803F107
:1002100004033B607B6803F104037B603A6840F2AF
:100220002803C2F200039A42ECD340F22803C2F240
:1002300000033B6007E03B684FF000021A603B6838
:1002400003F104033B603A6840F24003C2F200034A
:100250009A42F0D307F10C07BD4680BC704700BF3F
:10026000684620F007018D4689B500AFFFF7B8FF5B
:100270004FF46D43CEF2000340F20002C0F20002E0
:1002800022F0684222F07F0242F000629A6002F09F
:10029000E5F841F24003C2F200031B68184601F082
:1002A0009FFF4FF0030002F00FF800F0EBF9FEE7BC
:1002B00080B400AFFEE700BF80B500AF4FF4C05080
:1002C000C4F201004FF0020103F06AFA40F6FF7039
:1002D00000F00EF84FF4C050C4F201004FF00201DC
:1002E00003F050FA40F6FF7000F002F880BD00BF46
:1002F00080B483B000AF786003E07B6803F1FF3324
:100300007B607B68002BF8D107F10C07BD4680BCF1
:10031000704700BF80B500AF40F22C03C2F200036B
:100320004FF400721A8040F22C03C2F200034FF027
:100330001802DA704FF40060C4F2010040F22C01A0
:10034000C2F2000103F0D8F840F22C03C2F200031D
:100350004FF480621A8040F22C03C2F200034FF087
:100360000402DA704FF40060C4F2010040F22C0184
:10037000C2F2000103F0C0F840F23003C2F2000301
:100380004FF416521A6040F23003C2F200034FF0ED
:1003900000029A8040F23003C2F200034FF00002E4
:1003A000DA8040F23003C2F200034FF000021A81FB
:1003B00040F23003C2F200034FF000029A8140F293
:1003C0003003C2F200034FF00C025A814FF4605028
:1003D000C4F2010040F23001C2F2000104F0CEF894
:1003E0004FF46050C4F201004FF0010104F004FA30
:1003F00080BD00BF80B500AF40F22C03C2F2000305
:100400004FF0C0021A8040F22C03C2F200034FF0FA
:100410001002DA7040F22C03C2F200034FF0030224
:100420009A704FF48050C4F2010040F22C01C2F2E5
:10043000000103F061F840F22C03C2F200034FF018
:1004400002021A804FF4C050C4F2010040F22C01A5
:10045000C2F2000103F050F840F22C03C2F2000394
:100460004CF233721A8040F22C03C2F200034FF0B8
:1004700003029A7040F22C03C2F200034FF01802FC
:10048000DA704FF4A050C4F2010040F22C01C2F225
:10049000000103F031F840F22C03C2F200034FF6E2
:1004A00080721A804FF4C050C4F2010040F22C0157
:1004B000C2F2000103F020F840F22C03C2F2000364
:1004C0004FF080021A804FF4A050C4F2010040F2B5
:1004D0002C01C2F2000103F00FF840F22C03C2F22B
:1004E00000034FF400621A804FF4A050C4F20100E0
:1004F00040F22C01C2F2000102F0FEFF4FF4A050C6
:10050000C4F201004FF0800103F03CF94FF4A05019
:10051000C4F201004CF2030103F034F94FF4C0506F
:10052000C4F201004FF4F06103F02CF94FF4C05015
:10053000C4F201004FF0020103F032F94FF4A05071
:10054000C4F201004FF0100103F01CF94FF4A05069
:10055000C4F201004FF0200103F014F940F22C0323
:10056000C2F200034FF002021A8040F22C03C2F2E2
:1005700000034FF00402DA7040F22C03C2F20003D1
:100580004FF003029A704FF48050C4F2010040F221
:100590002C01C2F2000102F0AFFF80BD80B582B035
:1005A00000AF0346FB71FB799BB24FF46050C4F27D
:1005B0000100194604F04AFA00BF4FF46053C4F238
:1005C00001031B889BB203F08003002BF5D007F1D9
:1005D0000807BD4680BD00BF80B584B000AF78601D
:1005E000786801F0C5FD0346BB604FF00003FB6077
:1005F0000CE07B681B787A6802F101027A60184689
:10060000FFF7CCFFFB6803F10103FB60FA68BB68EE
:100610009A42EEDB07F11007BD4680BD80B500AF02
:1006200044F66460C0F60000FFF7D6FF80BD00BF4F
:1006300080B582B000AF44F65C63C0F600037B6017
:100640000BE07B685B6898477B681B681846FFF780
:10065000C3FF7B6803F108037B607A6844F6646338
:10066000C0F600039A42ECD307F10807BD4680BDEF
:1006700080B500AF44F68060C0F60000FFF7ACFF25
:10068000FEE700BF80B586B002AF7860396044F203
:100690007D004FF0010103F0A3FDFFF7ABFEFFF774
:1006A00039FE4FF004033B814FF00203BB724FF061
:1006B0001003FB7207F108034FF40060C4F201005D
:1006C000194602F019FF4FF0C0033B814FF01003B1
:1006D000FB724FF00303BB7207F108034FF4805025
:1006E000C4F20100194602F007FF00F05BF801F0C8
:1006F00093F84FF0000300934FF6FF7301934FF010
:1007000000004FF0000144F69462C0F600024FF082
:10071000200300F0CDF84FF6FF7300934FF0000078
:100720004FF0100144F6B862C0F600024FF478436F
:1007300000F0CCF94AF22013C0F20703FB60FFF788
:1007400077FF44F6C460C0F600004EF24021C0F2CC
:10075000010101F09BFB03E0FB6803F1FF33FB6049
:10076000FB68002BF8D14FF48050C4F201004FF029
:10077000400103F007F84AF22013C0F20703FB60C0
:1007800003E0FB6803F1FF33FB60FB68002BF8D14B
:100790004FF48050C4F201004FF0400103F000F824
:1007A000C8E700BF80B596B000AF4FF480704FF03F
:1007B000010103F0EBFC4FF002033B604FF000033C
:1007C0007B604FF00503BB604FF00003FB604FF010
:1007D00000033B614FF000037B614FF08053BB612E
:1007E0004FF00003FB614FF000033B624FF0080342
:1007F0007B624FF01003BB624FF00003FB624FF0CF
:1008000000037B634FF00003BB634FF00003FB6307
:100810004FF480533B644FF000037B644FF00003C0
:10082000BB644FF00003FB643B463B653B467B6586
:1008300007F11C03184602F081F84FF000004FF05A
:10084000010102F031FB07F15807BD4680BD00BF32
:1008500080B485B000AF78607B684FEAD303DBB229
:1008600003F01F03FB737B684FEA9323DBB203F0B3
:100870003F03BB737B684FEAD343DBB203F01F0334
:100880007B737B7B9BB24FEAC3239AB2BB7B9BB249
:100890004FEA43139BB2D3189AB2FB7B9BB2D31897
:1008A0009BB2184607F11407BD4680BC704700BFD5
:1008B00090B589B002AFBA600246FA810A46BA81A1
:1008C000FB804FF00003FB7517E0FB7D9BB24FEA06
:1008D000C3039AB2FB89D31898B2BB681A78BB6875
:1008E00003F10103BB60B9893B8DBC8D009400F01E
:1008F000DFFDFB7D03F10103FB75FB7D9BB2FA88F5
:100900009A42E2D807F11C07BD4690BD80B590B071
:1009100000AFBA600246FA810A46BA81FB804FF006
:100920000003FB634FF00003FB63C2E0FB6B4FEA85
:100930004303BA68D3181B7803F1600387F8383093
:10094000FB6B4FEA430303F10103BA68D3181B782A
:1009500003F1600387F8373097F8383003F1FF333D
:100960004FF05E0202FB03F297F8373003F1FF33DA
:10097000D3184FEA43133B633B6B03F1006303F56A
:10098000403307F1100211461A464FF02003084683
:1009900011461A4601F0A8FB4FF0000387F83B30E0
:1009A0007EE04FF0000387F83A306FE04FF000032D
:1009B00087F8393060E097F83B304FEA430297F808
:1009C0003A30D31807F14002D31813F8303C1A46D6
:1009D00097F839304FF0800141FA03F31340002BB0
:1009E00022D0FB6B9BB24FEA03139AB2FB89D31858
:1009F0009AB297F839309BB2D3189AB297F83A3036
:100A00009BB24FEAC3039BB2D31899B297F83B301D
:100A10009AB2BB89D3189AB2B7F848300846114643
:100A20001A4600F0EFFC21E0FB6B9BB24FEA031388
:100A30009AB2FB89D3189AB297F839309BB2D3187F
:100A40009AB297F83A309BB24FEAC3039BB2D318DD
:100A500099B297F83B309AB2BB89D3189AB2B7F8DB
:100A60004C30084611461A4600F0CCFC97F8393055
:100A700003F1010387F8393097F83930072B9AD9F9
:100A800097F83A3003F1010387F83A3097F83A3093
:100A9000012B8BD997F83B3003F1010387F83B30EA
:100AA00097F83B300F2B7FF67CAFFB6B03F1010314
:100AB000FB63FB884FEA53039BB21A46FB6B9A42D7
:100AC0003FF734AF07F14007BD4680BD80B588B021
:100AD00002AFBA600246FA810A46BA81FB804FF043
:100AE00000037B6138E0BB681B78DBB25BB2002B94
:100AF00019DB7B699AB2FB89D3189AB2BB89F98852
:100B00000091398C019110461946BA684FF00103E3
:100B1000FFF7CEFE7B6903F108037B61BB6803F13D
:100B20000103BB6018E07B699AB2FB89D3189AB2C3
:100B3000BB89F9880091398C019110461946BA6831
:100B40004FF00203FFF7E2FEBB6803F10203BB6054
:100B50007B6903F110037B61BB681B78002BC2D15A
:100B600007F11807BD4680BD80B58AB000AFF88098
:100B7000B9807A803B80BA883B889A421CD1FA8837
:100B80007B889A4202D8FB88FB8410E07B88FB8438
:100B9000FB887B800BE0F98CBA883B8E08461146B7
:100BA0001A4600F02FFCFB8C03F10103FB84FA8C46
:100BB0007B889A42EFD964E1BA883B889A4204D98B
:100BC000BA883B88D31A3B8403E03A88BB88D31A9F
:100BD0003B84FA887B889A421CD1BA883B889A4227
:100BE00002D8BB88BB8410E03B88BB84BB883B80B9
:100BF0000BE0F988BA8C3B8E084611461A4600F085
:100C000001FCBB8C03F10103BB84BA8C3B889A4284
:100C1000EFD936E1FA887B889A420CD9FA887B882A
:100C2000D31A7B847B88FB84FB887B803B88BB84D6
:100C3000BB883B8007E07A88FB88D31A7B84FB88DB
:100C4000FB84BB88BB847A8C3B8C9A421ED118E013
:100C5000FB8C03F10103FB84BA8C3B889A4204D9D4
:100C6000BB8C03F1FF33BB8403E0BB8C03F10103B6
:100C7000BB84F98CBA8C3B8E084611461A4600F0AC
:100C8000C1FBFA8C7B889A42E2D9FAE0F98CBA8CE3
:100C90003B8E084611461A4600F0B4FBBA8C3B88DE
:100CA0009A4277D27A8C3B8C9A4239D93B8C4FEA64
:100CB00043039AB27B8CD31A9BB2FB833B8C4FEAE3
:100CC00043039BB2FB823A8C7B8CD31A9BB24FEAD4
:100CD00043039BB2BB821EE0FB8C03F10103FB8448
:100CE000B7F91E30002B05DAFA8BFB8AD3189BB2BA
:100CF000FB8308E0BB8C03F10103BB84FA8BBB8A46
:100D0000D3189BB2FB83F98CBA8C3B8E08461146F4
:100D10001A4600F077FBFA8C7B889A42DCD3B0E06D
:100D20007B8C4FEA43039AB23B8CD31A9BB2BB83B2
:100D30007B8C4FEA43039BB27B827A8C3B8CD31A29
:100D40009BB24FEA43039BB23B821EE0BB8C03F194
:100D50000103BB84B7F91C30002B05DABA8B7B8A00
:100D6000D3189BB2BB8308E0FB8C03F10103FB8427
:100D7000BA8B3B8AD3189BB2BB83F98CBA8C3B8E5F
:100D8000084611461A4600F03DFBBA8C3B889A4251
:100D9000DCD376E07A8C3B8C9A4239D93B8C4FEA93
:100DA00043039AB27B8CD31A9BB27B833B8C4FEA72
:100DB00043039BB2FB813A8C7B8CD31A9BB24FEAE4
:100DC00043039BB2BB811EE0FB8C03F10103FB8458
:100DD000B7F91A30002B05DA7A8BFB89D3189BB24E
:100DE0007B8308E0BB8C03F1FF33BB847A8BBB8928
:100DF000D3189BB27B83F98CBA8C3B8E0846114684
:100E00001A4600F0FFFAFA8C7B889A42DCD338E06D
:100E10007B8C4FEA43039AB23B8CD31A9BB23B8341
:100E20007B8C4FEA43039BB27B817A8C3B8CD31A39
:100E30009BB24FEA43039BB23B811EE0BB8C03F1A4
:100E4000FF33BB84B7F91830002B05DA3A8B7B8966
:100E5000D3189BB23B8308E0FB8C03F10103FB84B6
:100E60003A8B3B89D3189BB23B83F98CBA8C3B8E6F
:100E7000084611461A4600F0C5FA3A88BB8C9A42D9
:100E8000DCD307F12807BD4680BD00BF90B587B011
:100E900002AFF880B9807A803B804FF00003FB817D
:100EA0007B88BB817B884FEA43039BB2C3F103037A
:100EB0009BB27B81F0E097F82030002B50D0FA886D
:100EC000FB89D31898B2BA88BB89D31899B2FA882B
:100ED000FB89D31A9AB2BC88BB89E3189BB23C88C1
:100EE0000094FFF741FEFA88FB89D31898B2BA88BC
:100EF000BB89D31A99B2FA88FB89D31A9AB2BC88F3
:100F0000BB89E31A9BB23C880094FFF72DFEFA8858
:100F1000BB89D31898B2BA88FB89D31899B2FA88DA
:100F2000BB89D31A9AB2BC88FB89E3189BB23C8870
:100F30000094FFF719FEFA88BB89D31898B2BA88D3
:100F4000FB89D31A99B2FA88BB89D31A9AB2BC88A2
:100F5000FB89E31A9BB23C880094FFF705FE6FE023
:100F6000FA88FB89D31899B2BA88BB89D3189AB288
:100F70003B88084611461A4600F044FAFA88FB8975
:100F8000D31A99B2BA88BB89D3189AB23B8808465B
:100F900011461A4600F036FAFA88FB89D31899B23E
:100FA000BA88BB89D31A9AB23B88084611461A46BA
:100FB00000F028FAFA88FB89D31A99B2BA88BB895B
:100FC000D31A9AB23B88084611461A4600F01AFA1C
:100FD000FA88BB89D31899B2BA88FB89D3189AB218
:100FE0003B88084611461A4600F00CFAFA88BB897D
:100FF000D31A99B2BA88FB89D3189AB23B880846AB
:1010000011461A4600F0FEF9FA88BB89D31899B246
:10101000BA88FB89D31A9AB23B88084611461A4609
:1010200000F0F0F9FA88BB89D31A99B2BA88FB8923
:10103000D31A9AB23B88084611461A4600F0E2F9E4
:10104000FB8903F10103FB81B7F90A30002B18DBA0
:10105000BB8903F1FF33BB81FB894FEA83033B81EB
:101060003A89BB894FEA83039BB2D31A9BB23B8177
:101070003A897B89D3189BB203F10A039BB27B8127
:101080000AE0FB894FEA83039AB27B89D3189BB2AB
:1010900003F106039BB27B81BA89FB899A423FF632
:1010A0000AAF07F11407BD4690BD00BF90B587B0E9
:1010B00002AFF880B9807A803B8097F82430002B0B
:1010C0001CD0FA887B889A4204D97B88FB81FB88F4
:1010D0007B800EE0FB88FB810BE0F889B988FA89F8
:1010E0003B883C8C0094FFF73FFDFB8903F1010333
:1010F000FB81FA897B889A42EFD91FE0F888B9888A
:10110000FA883B883C8C0094FFF72EFDF8883988DC
:101110007A883B883C8C0094FFF726FD78883988D4
:101120007A88BB883C8C0094FFF71EFD7888B988CC
:10113000FA88BB883C8C0094FFF716FD07F1140772
:10114000BD4690BD90B585B002AFF880B9807A8079
:101150003B80FA887B88D3189AB2B9887B88CB18F1
:101160009BB2F888B9883C8800943C7E0194FFF7D4
:101170009DFF07F10C07BD4690BD00BF80B582B052
:1011800000AF4FF00003FB804FF040004FF0010133
:1011900003F026F84FF6FF733B804FF00303BB705C
:1011A0004FF01003FB703B464FF4C050C4F20100F7
:1011B000194602F0A1F94FF020004FF0010103F0B1
:1011C0000FF84FF01F033B804FF00303BB704FF04D
:1011D0001003FB703B464FF4A050C4F201001946C7
:1011E00002F08AF94FF4A050C4F201004FF01F0141
:1011F00002F00AFB4FF4A050C4F201004FF01F01AF
:1012000002F0C0FA00F08EFA4FF000004FF001013A
:1012100000F076FA4CF2503000F094FA4FF6FF737B
:101220003B804FF00203BB704FF00403FB703B4662
:101230004FF4C050C4F20100194602F05DF94FF4BA
:10124000A050C4F201004FF0010102F0A9FA4FF4DE
:10125000A050C4F201004FF0020102F093FA4FF4E3
:10126000A050C4F201004FF0080102F099FA4FF4C7
:10127000C050C4F2010002F04BFA0346FB804FF469
:10128000A050C4F201004FF0080102F07BFA4FF4C5
:10129000A050C4F201004FF0010102F073FAFB8884
:1012A000184607F10807BD4680BD00BF80B500AFF6
:1012B00000F0B2FA80BD00BF80B582B000AF024638
:1012C0000B46FA80BB80BB884FF02000194600F027
:1012D00059FAFB88C3F59F7303F101034FF0210016
:1012E000194600F04FFA07F10807BD4680BD00BF60
:1012F00080B582B000AFF880B9807A803B80BB882F
:101300004FF05000194600F03DFA7B884FF0510035
:10131000194600F037FAFB88C3F59F7303F1010308
:101320004FF05200194600F02DFA3B884FF0530061
:10133000194600F027FA07F10807BD4680BD00BF37
:1013400080B584B000AF0346FB804FF050004FF0F3
:10135000000100F017FA4FF051004FF0EF0100F0DC
:1013600011FA4FF052004FF0000100F00BFA4FF06D
:10137000530040F23F1100F005FA4FF020004FF00B
:10138000000100F0FFF94FF021004FF0000100F0E4
:10139000F9F94FF0220000F0E7F94FF00003FB608D
:1013A00007E0FB88184600F017FAFB6803F1010319
:1013B000FB60FA6842F6FF33C0F201039A42F0D9AB
:1013C00007F11007BD4680BD80B582B000AF024670
:1013D0000B46FA80BB80FA88BB8810461946FFF797
:1013E0006BFF4FF0220000F0BFF900F069F90346EF
:1013F000184600F021F90346184607F10807BD46D4
:1014000080BD00BF80B582B000AF13460246FA80AF
:101410000A46BA807B80BB884FF02000194600F056
:10142000B1F9FB88C3F59F7303F101034FF021006D
:10143000194600F0A7F94FF0220000F095F97B88DB
:10144000184600F0C9F907F10807BD4680BD00BF86
:1014500080B584B000AFF880B9807A803B80F8888E
:10146000B9887A883B88FFF743FFFA88BB88104623
:101470001946FFF721FF4FF00003FB810CE0BB6929
:101480001B88BA6902F10202BA61184600F0A4F999
:10149000FB8903F10103FB81FA897B88398801FB11
:1014A00003F39A42EBDB07F11007BD4680BD00BF96
:1014B00080B584B000AFF880B980FA703B804FF0FF
:1014C0000003FB814FF00003BB814FF00003FB7270
:1014D0004FF00003FB8143E0FB78A3F120034FEAC8
:1014E0000312FB89D21844F6D063C0F600039B5C5C
:1014F000FB724FF00003BB812BE0FA7ABB89C3F18A
:10150000070342FA03F303F00103DBB2002B0ED012
:10151000FA88BB89D31899B2BA88FB89D3189AB2D2
:101520003B88084611461A46FFF76CFF0DE0FA8823
:10153000BB89D31899B2BA88FB89D3189AB23B8B6E
:10154000084611461A46FFF75DFFBB8903F1010308
:10155000BB81BB89072BD0D9FB8903F10103FB8138
:10156000FB890F2BB8D907F11007BD4680BD00BF1E
:1015700080B582B000AF4FF000004FF00001FFF7E0
:101580009BFE4FF00003FB804CE04FF00003BB805C
:1015900041E0FA8840F217139A4204D94FF0000054
:1015A00000F01AF933E0FB88EF2B04D94FF01F004D
:1015B00000F012F92BE0FB88C72B04D94FF4FC6034
:1015C00000F00AF923E0FB889F2B04D940F2FF705A
:1015D00000F002F91BE0FB88772B04D94FF4784028
:1015E00000F0FAF813E0FB884F2B04D94FF61F00E8
:1015F00000F0F2F80BE0FB88272B04D94FF6E070DF
:1016000000F0EAF803E04FF6FF7000F0E5F8BB8861
:1016100003F10103BB80BB88EF2BBAD9FB8803F130
:101620000103FB80FA8840F23F139A42ADD907F1DB
:101630000807BD4680BD00BF80B485B000AF03463B
:10164000FB80FB8803F01F03FB81FB884FEA5313E9
:101650009BB203F03F03BB81FB884FEAD3237B811E
:10166000FB894FEAC3239AB2BB894FEA43139BB26B
:10167000D3189AB27B89D3189BB2184607F1140786
:10168000BD4680BC704700BF80B582B000AF034646
:10169000FB80FB88DBB2184600F066F807F108070C
:1016A000BD4680BD80B582B000AF0346FB80FB889D
:1016B000184600F091F807F10807BD4680BD00BF4D
:1016C00080B582B000AF4FF00003FB8000F070F8EF
:1016D0000346FB80FB88184607F10807BD4680BD1E
:1016E00080B485B000AF0346FB804FF0C0431B6859
:1016F000FB81FB89184607F11407BD4680BC704783
:1017000080B582B000AF02460B46FA80BB80FA88F3
:10171000BB881046194600F035F807F10807BD46AA
:1017200080BD00BF80B400AFBD4680BC704700BF25
:1017300080B483B000AF0346FB7107F10C07BD46D0
:1017400080BC704780B483B000AF786003E07B68F2
:1017500003F1FF337B607B68002BF8D107F10C07A6
:10176000BD4680BC704700BF80B483B000AF7860D6
:101770004FF0C0437A6892B21A8007F10C07BD4659
:1017800080BC704780B483B000AF786039604FF0A0
:10179000C0437A6892B21A804FF00003C6F2020387
:1017A0003A6892B21A8007F10C07BD4680BC7047B8
:1017B00080B483B000AF4FF000037B604FF00003B4
:1017C000C6F202031B889BB27B607B68184607F158
:1017D0000C07BD4680BC704780B483B000AF786012
:1017E0004FF00003C6F202037A6892B21A8007F142
:1017F0000C07BD4680BC704780B483B000AF7860F2
:101800004FF00003C6F202037A6892B21A8007F121
:101810000C07BD4680BC704780B500AFFEF74CFD9D
:101820004FF0E30043F20801FFF7ACFF4FF0E70091
:101830004FF01201FFF7A6FF4FF0EF0041F2312108
:10184000FFF7A0FF4FF000004FF00101FFF79AFFF4
:101850004FF001004FF48071FFF794FF4FF002004A
:101860004FF4E061FFF78EFF4FF0030041F21801E3
:10187000FFF788FF4FF004004FF00001FFF782FFF1
:101880004FF0080040F20221FFF77CFF4FF0090003
:101890004FF00001FFF776FF4FF00A004FF0000114
:1018A000FFF770FF4FF00C004FF00001FFF76AFFE9
:1018B0004FF00D004FF00001FFF764FF4FF00F00F5
:1018C0004FF00001FFF75EFF4FF010004FF00001F6
:1018D000FFF758FF4FF011004FF00701FFF752FFDD
:1018E0004FF012004FF00001FFF74CFF4FF01300D4
:1018F0004FF00001FFF746FF4FF0C800FEF7F8FC7D
:101900004FF0100041F29061FFF73CFF4FF01100E3
:1019100040F22721FFF736FF4FF03200FEF7E8FCD8
:101920004FF012004FF01C01FFF72CFF4FF0320078
:10193000FEF7DEFC4FF013004FF4C051FFF722FF1B
:101940004FF029004FF01C01FFF71CFF4FF02B0058
:101950004FF00D01FFF716FF4FF03200FEF7C8FC05
:101960004FF020004FF00001FFF70CFF4FF0210077
:101970004FF00001FFF706FF4FF030004FF0070176
:10198000FFF700FF4FF0310040F20231FFF7FAFE9F
:101990004FF0320040F20511FFF7F4FE4FF0350032
:1019A00040F20621FFF7EEFE4FF0360040F6080148
:1019B000FFF7E8FE4FF0370040F20621FFF7E2FEA6
:1019C0004FF0380040F20451FFF7DCFE4FF03900D1
:1019D0004FF00701FFF7D6FE4FF03C0040F2051133
:1019E000FFF7D0FE4FF03D0040F60801FFF7CAFEBA
:1019F0004FF050004FF00001FFF7C4FE4FF05100D0
:101A00004FF0EF01FFF7BEFE4FF052004FF0000124
:101A1000FFF7B8FE4FF0530040F23F11FFF7B2FE60
:101A20004FF060004FF42741FFF7ACFE4FF061002C
:101A30004FF00101FFF7A6FE4FF06A004FF00001E2
:101A4000FFF7A0FE4FF080004FF00001FFF79AFE75
:101A50004FF081004FF00001FFF794FE4FF082003D
:101A60004FF00001FFF78EFE4FF083004FF00001B2
:101A7000FFF788FE4FF084004FF00001FFF782FE71
:101A80004FF085004FF00001FFF77CFE4FF0900013
:101A90004FF01001FFF776FE4FF092004FF000017B
:101AA000FFF770FE4FF093004FF00301FFF76AFE5F
:101AB0004FF095004FF48871FFF764FE4FF09700E8
:101AC0004FF00001FFF75EFE4FF098004FF000016D
:101AD000FFF758FE4FF0070040F23311FFF752FEB8
:101AE0004FF020004FF00001FFF74CFE4FF02100B7
:101AF00040F23F11FFF746FE4FF0C0434FF0220285
:101B00001A8040F22803C2F200034FF000021A606C
:101B10000FE04FF6FF70FFF75FFE40F22803C2F2BE
:101B200000031B6803F1010240F22803C2F2000324
:101B30001A6040F22803C2F200031A6842F6FF332B
:101B4000C0F201039A42E4D940F22803C2F2000332
:101B50004FF000021A6080BD80B485B000AF78609D
:101B600039604FF000037B7205E07B681B6803F16E
:101B700001027B681A607B681B681B78FB72FB7A2A
:101B8000202BF2D0FB7A2D2B0CD14FF001037B726E
:101B90007B681B6803F101027B681A607B681B6825
:101BA0001B78FB72FB7A302B42D17B681B6803F1F8
:101BB00001027B681A607B681B681B78FB72FB7AEA
:101BC000202B06D83B684FF000021A604FF001034B
:101BD0007DE0FB7A782B0DD14FF01003BB727B6850
:101BE0001B6803F101027B681A607B681B681B7825
:101BF000FB7229E0FB7A622B0DD14FF00203BB721E
:101C00007B681B6803F101027B681A607B681B68B4
:101C10001B78FB7218E0FB7A2F2B06D9FB7A392B45
:101C200003D84FF00803BB720EE04FF000034EE004
:101C3000FB7A302B02D9FB7A392B02D94FF0000303
:101C400045E04FF00A03BB724FF00003FB602FE04A
:101C5000FB7A602B03D9FB7AA3F12003FB72FB7A9A
:101C6000A3F13003FB72FB7A102B09D9FB7AA3F1A5
:101C70000703FB72FB7A092B02D84FF0000326E022
:101C8000FA7ABB7A9A4202D34FF000031FE0BB7A84
:101C9000FA6802FB03F2FB7AD318FB607B681B68CF
:101CA00003F101027B681A607B681B681B78FB727A
:101CB000FB7A202BCCD87B7A002B03D0FB68C3F1B6
:101CC0000003FB60FA683B681A604FF00103184696
:101CD00007F11407BD4680BC704700BF80B582B0D5
:101CE00000AF0346FB71FB790A2B03D14FF00D00C7
:101CF000FEF754FCFB791846FEF750FC07F1080785
:101D0000BD4680BD80B582B000AF786008E07B68DA
:101D10001B787A6802F101027A601846FFF7DEFF4D
:101D20007B681B78002BF2D107F10807BD4680BD08
:101D300080B58CB000AFF860B9607A604FF00003F6
:101D400087F82E304FF0200387F82D304FF0000336
:101D500087F82C30BB68002B0EDABB68C3F1000398
:101D6000BB60FB68002B07DAFB68C3F10003FB6074
:101D70004FF02D0387F82E30FB68BB62BB6887F8F5
:101D800027307B68002B07DA7B68C3F100037B6098
:101D90004FF0300387F82D307B68142B70DC97F8F8
:101DA0002720BB6AB3FBF2F102FB01F29B1A87F812
:101DB0002F3097F82F30092B05D997F82F3003F1E2
:101DC000070387F82F3097F82F3003F1300387F897
:101DD0002F3097F82C3007F13002D31897F82F20C6
:101DE00003F8202C97F82C3003F1010387F82C30EE
:101DF00097F82730BA6AB2FBF3F3BB62BB6A002BD9
:101E0000CDD197F82E30002B1FD097F82C3007F14A
:101E10003002D31897F82E2003F8202C97F82C3096
:101E200003F1010387F82C300FE097F82C3007F10D
:101E30003002D31897F82D2003F8202C97F82C3077
:101E400003F1010387F82C3000E000BF97F82C2045
:101E50007B689A42E9DB97F82C3003F1FF3387F86F
:101E60002C3097F82C3007F13002D31813F8203CAF
:101E70001846FFF733FF97F82C30002BEBD100E02A
:101E800000BF07F13007BD4680BD00BF0FB480B56D
:101E900086B000AF07F124033B60B6E07B69252BD9
:101EA00005D07B69DBB21846FFF718FFADE03B6A4F
:101EB0001B787B613B6A03F101033B624FF0000337
:101EC0007B607B68BB60BB683B613B69FB607B6997
:101ED000302B20D13B6A1B787B613B6A03F1010305
:101EE0003B624FF00103BB6015E0FA6813464FEA0E
:101EF00083039B184FEA43031A467B69A3F130031F
:101F0000D318FA68D318FB603B6A1B787B613B6A85
:101F100003F101033B627B692F2B02DD7B69392BC7
:101F2000E3DDBB68002B03D0FB68C3F10003FB605B
:101F30007B696C2B09D14FF001037B603B6A1B78F6
:101F40007B613B6A03F101033B627B69002B6DD02F
:101F50007B69732B08D13B6803F104023A601B686C
:101F60001846FFF7CFFE50E07B69632B09D13B6831
:101F700003F104023A601B68DBB21846FFF7AEFEBD
:101F800043E07B69752B02D14FF00A033B617B690B
:101F9000642B02D16FF009033B617B69582B02D09F
:101FA0007B69782B02D14FF010033B617B69622B78
:101FB00002D14FF002033B613B69002B38D07B68B4
:101FC000002B0AD03B6803F104023A601B681846F4
:101FD0003969FA68FFF7ACFE17E03B69002B0ADDB0
:101FE0003B6803F104023A601B6818463969FA68D5
:101FF000FFF79EFE09E03B6803F104023A601B68AC
:1020000018463969FA68FFF793FE3B6A1B787B61D3
:102010007B69002B0CBF00230123DBB23A6A02F17B
:1020200001023A62002B7FF439AF02E000BF00E00A
:1020300000BF07F11807BD46BDE8804004B07047F7
:1020400080B586B000AFF860B9607A6045F2D040E4
:10205000C0F60000B968FFF719FF4FF00003FB75E9
:102060000EE0FB7DFA68D3181B7845F2D840C0F625
:1020700000001946FFF70AFFFB7D03F10103FB7522
:10208000FA7D7B689A42ECDB4FF02000FFF726FEDA
:102090004FF00003FB751BE0FB7DFA68D3181B783B
:1020A0001F2B05D9FB7DFA68D3181B787E2B04D92A
:1020B0004FF02E00FFF712FE06E0FB7DFA68D31802
:1020C0001B781846FFF70AFEFB7D03F10103FB7541
:1020D000FA7D7B689A42DFDB4FF00A00FFF7FEFDD6
:1020E00007F11807BD4680BD0F2AF0B498BF03461C
:1020F00031D941EA00039B0737D10C460346154608
:102100002668103D1E6066685E60A6689E60E66890
:102110001034DE6010330F2DF2D8A2F1100424F039
:102120000F0402F00F021034032A00EB04032144D1
:1021300011D90E1F1D46144656F8047F043C032C8B
:1021400045F8047BF8D8141F24F00304043402F08B
:10215000030209191B1932B1013911F8014F013A73
:1021600003F8014BF9D1F0BC70470346F4E700BF18
:1021700020F0030110F00300C0F1000051F8043B0F
:1021800000F1040C4FEACC0C6FF000021CBF22FAE5
:102190000CF213434FF0010C4CEA0C2C4CEA0C4CA3
:1021A000A3EB0C0222EA030212EACC1204BF51F89C
:1021B000043B0430F4D013F0FF0F1FBF013013F4C1
:1021C0007F4F013013F47F0F18BF0130704700BFFD
:1021D0004FF00004EFF30984204670472346184669
:1021E000034683F3098870474FF00004EFF3088437
:1021F0002046704723461846034683F308887047F5
:1022000090B482B000AF4FF000037B60EFF3128414
:102210007C607B68184607F10807BD4690BC704794
:1022200080B483B000AF78607B6883F3118807F1D6
:102230000C07BD4680BC704790B482B000AF4FF031
:1022400000037B60EFF310847C607B68184607F125
:102250000807BD4690BC704780B483B000AF78607B
:102260007B6883F3108807F10C07BD4680BC70477C
:1022700090B482B000AF4FF000037B60EFF31384A3
:102280007C607B68184607F10807BD4690BC704724
:1022900080B483B000AF78607B6883F3138807F164
:1022A0000C07BD4680BC704790B482B000AF4FF0C1
:1022B00000037B60EFF314847C607B68184607F1B1
:1022C0000807BD4690BC704780B483B000AF78600B
:1022D0007B6883F3148807F10C07BD4680BC704708
:1022E00090B484B000AF78604FF00003FB607B686F
:1022F0001CBAFC60FB68184607F11007BD4690BC8D
:10230000704700BF90B484B000AF0346FB804FF02D
:102310000003FB60FB885CBAFC60FB68184607F1B1
:102320001007BD4690BC704790B484B000AF034620
:10233000FB804FF00003FB60FB88DCBAFC60FB68AD
:10234000184607F11007BD4690BC704790B484B0A2
:1023500000AF78604FF00003FB607B6893FAA3F452
:10236000FC60FB68184607F11007BD4690BC70473B
:1023700090B484B000AF78604FF00003FB737B68CB
:10238000D3E84F4FFC73FB7B184607F11007BD469F
:1023900090BC704790B484B000AF78604FF00003F9
:1023A000FB817B68D3E85F4FFC81FB89184607F10E
:1023B0001007BD4690BC704790B484B000AF786001
:1023C0004FF00003FB607B6853E8004FFC60FB6844
:1023D000184607F11007BD4690BC704790B484B012
:1023E00000AF03463960FB714FF00003FB603B68B0
:1023F000FA79C3E8442FFC60FB68184607F1100720
:10240000BD4690BC704700BF90B484B000AF034697
:102410003960FB804FF00003FB603B68FA88C3E83B
:10242000542FFC60FB68184607F11007BD4690BCAE
:10243000704700BF90B484B000AF786039604FF04F
:102440000003FB603B687A6843E80024FC60FB689B
:10245000184607F11007BD4690BC704780B500AF25
:102460004FF48053C4F202034FF48052C4F20202CC
:10247000126842F001021A604FF48052C4F2020264
:102480004FF48053C4F2020359684FF00003CFF6B3
:10249000FF030B4053604FF48053C4F202034FF428
:1024A0008052C4F20202126822F0847222F4803256
:1024B0001A604FF48053C4F202034FF48052C4F206
:1024C0000202126822F480221A604FF48053C4F290
:1024D00002034FF48052C4F20202526822F4FE0258
:1024E0005A604FF48053C4F202034FF41F029A6003
:1024F00000F0ACF84FF46D43CEF200034FF00062F1
:102500009A6080BD80B485B000AF4FF00003FB60DF
:102510004FF00003BB604FF000037B604FF480532B
:10252000C4F202035B6803F00C03FB60FB68042B3E
:102530000DD0082B15D0002B5CD140F20003C2F265
:1025400000034FF49052C0F27A021A605CE040F24D
:102550000003C2F200034FF49052C0F27A021A60F4
:1025600052E04FF48053C4F202035B6803F470132B
:10257000BB604FF48053C4F202035B6803F4803302
:102580007B60BB684FEA934303F10203BB607B6847
:10259000002B0CD1BA684FF41063C0F23D0303FB6B
:1025A00002F240F20003C2F200031A602CE04FF482
:1025B0008053C4F202035B6803F40033002B0CD099
:1025C000BA684FF41063C0F23D0303FB02F240F21D
:1025D0000003C2F200031A6016E0BA684FF4905389
:1025E000C0F27A0303FB02F240F20003C2F20003DE
:1025F0001A6009E040F20003C2F200034FF4905267
:10260000C0F27A021A6000BF4FF48053C4F2020392
:102610005B6803F0F0034FEA131240F20403C2F2C6
:1026200000039B5CDBB2FB6040F20003C2F20003DC
:102630001A68FB6822FA03F240F20003C2F20003B8
:102640001A6007F11407BD4680BC704780B500AF23
:1026500000F002F880BD00BF80B483B000AF4FF03F
:1026600000037B604FF000033B604FF48053C4F2E3
:1026700002034FF48052C4F20202126842F4803224
:102680001A604FF48053C4F202031B6803F4003352
:102690003B607B6803F101037B603B68002B03D147
:1026A0007B68B3F5A06FECD14FF48053C4F2020302
:1026B0001B6803F40033002B03D04FF001033B6091
:1026C00002E04FF000033B603B68012B40F0948038
:1026D0004FF40053C4F202034FF40052C4F202025A
:1026E000126842F010021A604FF40053C4F2020361
:1026F0004FF40052C4F20202126822F003021A6080
:102700004FF40053C4F202034FF40052C4F2020229
:10271000126842F002021A604FF48053C4F20203BE
:102720004FF48052C4F2020252685A604FF4805350
:10273000C4F202034FF48052C4F2020252685A609B
:102740004FF48053C4F202034FF48052C4F20202E9
:10275000526842F480625A604FF48053C4F202031C
:102760004FF48052C4F20202526822F47C125A6082
:102770004FF48053C4F202034FF48052C4F20202B9
:10278000526842F4E8125A604FF48053C4F20203D4
:102790004FF48052C4F20202126842F080721A6052
:1027A00000BF4FF48053C4F202031B6803F00073B0
:1027B000002BF6D04FF48053C4F202034FF4805242
:1027C000C4F20202526822F003025A604FF48053AE
:1027D000C4F202034FF48052C4F20202526842F083
:1027E00002025A6000BF4FF48053C4F202035B68D8
:1027F00003F00C03082BF6D107F10C07BD4680BC93
:10280000704700BF80B483B000AF78607B68002B56
:1028100007D14FF020437A6843F2DB0143F82210DE
:1028200006E04FF020437A6843F2D20143F82210C9
:102830004FF020437A6802F101026FF0704143F8D3
:1028400022104FF48273CAF200037A686FF070416D
:1028500043F8221007F10C07BD4680BC704700BF4B
:1028600080B483B000AF78607B68102B1CD14FF030
:102870006003CAF200034FF018021A604FF06003C1
:10288000CAF200034FF040025A604FF06003CAF2F0
:1028900000034FF0FC329A604FF06003CAF200036D
:1028A0004FF0FC32DA601BE04FF08003CAF2000305
:1028B0004FF018021A604FF08003CAF200034FF085
:1028C00040025A604FF08003CAF200034FF0FC321E
:1028D0009A604FF08003CAF200034FF0FC32DA60D6
:1028E00007F10C07BD4680BC704700BF80B400AF45
:1028F0004FF0A003CAF200034FF018021A604FF025
:10290000A003CAF200034FF000025A604FF0A00388
:10291000CAF200034FF0FC329A604FF0A003CAF2F3
:1029200000034FF0FC32DA604FF0A003CAF200035C
:102930004FF0FC321A61BD4680BC704780B483B052
:1029400000AF78604FF020437A6812687968486871
:102950007968896808437968C968084379680969AA
:10296000084379684969084379688969084379683F
:10297000C96908437968096A08437968496A08435C
:102980007968896A08437968C96A08437968096B74
:10299000014343F822107B689B68082B0DD14FF050
:1029A00020437A6812684FF020417868006851F837
:1029B000201041F0400143F822104FF020437A6884
:1029C000126802F101027968496B08687968496BFD
:1029D00049684FEA011108437968496B89684FEAF1
:1029E000012108437968496BC9684FEA01410843EE
:1029F0007968496B09694FEA015108437968496B65
:102A000049694FEA016108437968496B8969014363
:102A100043F822107B68DB6AB3F5804F27D14FF46F
:102A20008273CAF200037A6812687968896B086851
:102A30007968896B49684FEA011108437968896BA5
:102A400089684FEA012108437968896B09694FEA6F
:102A5000015108437968896B49694FEA016108436C
:102A60007968896B8969014343F8221009E04FF4C2
:102A70008273CAF200037A6812686FF0704143F8FB
:102A8000221007F10C07BD4680BC704780B487B0A8
:102A900000AF78604FF000037B614FF000033B61B3
:102AA0004FF00003FB607B685A687B689B681A43A1
:102AB0007B68DB681A437B681B691A437B685B6928
:102AC0004FEA43231A437B689B694FEA433313431E
:102AD00043F008037B617B68DB691A687B68DB690C
:102AE0005B684FEA03231A437B68DB699B684FEA04
:102AF00003431A437B68DB69DB684FEA03631343D4
:102B00003B617B681B6A1A687B681B6A5B684FEADB
:102B100003231A437B681B6A9B684FEA03431A43EB
:102B20007B681B6ADB684FEA03631343FB607B68C7
:102B30001B68102B12D14FF06003CAF200037A69B0
:102B40001A604FF06003CAF200033A699A604FF0CE
:102B50006003CAF20003FA68DA6011E04FF0800304
:102B6000CAF200037A691A604FF08003CAF20003C8
:102B70003A699A604FF08003CAF20003FA68DA609B
:102B800007F11C07BD4680BC704700BF80B483B00E
:102B900000AF78604FF0A003CAF200037A681168B2
:102BA0007A6852684FEA422211437A6892684FEA83
:102BB00042320A4342F010021A604FF0A003CAF2F8
:102BC00000037A68D26811687A68D26852684FEA5E
:102BD000022211437A68D26892684FEA0242114396
:102BE0007A68D268D2684FEA02620A439A604FF06C
:102BF000A003CAF200037A68126911687A68126940
:102C000052684FEA022211437A68126992684FEAC9
:102C1000024211437A681269D2684FEA02620A439B
:102C2000DA604FF0A003CAF200037A6852691168B3
:102C30007A68526952684FEA022211437A685269EF
:102C400092684FEA024211437A685269D2684FEAA9
:102C500002620A431A6107F10C07BD4680BC704747
:102C600080B483B000AF78607B684FF000021A60D8
:102C70007B684FF002025A607B684FF000029A6056
:102C80007B684FF00002DA607B684FF000021A6147
:102C90007B684FF000025A617B684FF000029A6136
:102CA0007B684FF00002DA617B684FF000021A6225
:102CB0007B684FF480525A627B684FF400529A62EC
:102CC0007B684FF00002DA627B684FF000021A6303
:102CD0007B685B6B4FF00F021A607B685B6B4FF099
:102CE0000F025A607B685B6B4FF0FF029A607B6853
:102CF0005B6B4FF00F02DA607B685B6B4FF00F028B
:102D00001A617B685B6B4FF00F025A617B685B6BEB
:102D10004FF000029A617B689B6B4FF00F021A60C4
:102D20007B689B6B4FF00F025A607B689B6B4FF088
:102D3000FF029A607B689B6B4FF00F02DA607B6842
:102D40009B6B4FF00F021A617B689B6B4FF00F0279
:102D50005A617B689B6B4FF000029A6107F10C0788
:102D6000BD4680BC704700BF80B483B000AF7860C0
:102D70007B684FF010021A607B684FF000025A60C7
:102D80007B684FF000029A607B684FF00002DA60C7
:102D90007B684FF000021A617B684FF000025A61B5
:102DA0007B684FF000029A617B68DB694FF0FC02A0
:102DB0001A607B68DB694FF0FC025A607B68DB6954
:102DC0004FF0FC029A607B68DB694FF0FC02DA602E
:102DD0007B681B6A4FF0FC021A607B681B6A4FF02D
:102DE000FC025A607B681B6A4FF0FC029A607B68A9
:102DF0001B6A4FF0FC02DA6007F10C07BD4680BC8D
:102E0000704700BF80B483B000AF78607B684FF03C
:102E100000021A607B684FF000025A607B684FF036
:102E200000029A607B68DB684FF0FC021A607B68E6
:102E3000DB684FF0FC025A607B68DB684FF0FC02F5
:102E40009A607B68DB684FF0FC02DA607B681B6984
:102E50004FF0FC021A607B681B694FF0FC025A605D
:102E60007B681B694FF0FC029A607B681B694FF01E
:102E7000FC02DA607B685B694FF0FC021A607B68D9
:102E80005B694FF0FC025A607B685B694FF0FC02A3
:102E90009A607B685B694FF0FC02DA6007F10C070F
:102EA000BD4680BC704700BF80B483B000AF78607F
:102EB0000B46FB70FB78002B0CD04FF020434FF0FB
:102EC0002042796852F8212042F001017A6843F8E3
:102ED00022100EE04FF020424FF02043796853F863
:102EE00021104FF6FE73C0F20F030B40796842F8D1
:102EF000213007F10C07BD4680BC704780B483B019
:102F000000AF78600B46FB70FB78002B1CD07B6811
:102F1000102B0CD14FF06003CAF200034FF0600297
:102F2000CAF20002126842F004021A602EE04FF06A
:102F30008003CAF200034FF08002CAF20002126856
:102F400042F004021A6021E07B68102B0FD14FF091
:102F50006002CAF200024FF06003CAF2000319686F
:102F60004FF6FB73C0F20F030B4013600EE04FF0FF
:102F70008002CAF200024FF08003CAF2000319680F
:102F80004FF6FB73C0F20F030B40136007F10C0701
:102F9000BD4680BC704700BF80B483B000AF03461D
:102FA000FB71FB79002B0CD04FF0A003CAF2000399
:102FB0004FF0A002CAF20002126842F004021A6046
:102FC0000EE04FF0A002CAF200024FF0A003CAF2D6
:102FD000000319684FF6FB73C0F20F030B40136038
:102FE00007F10C07BD4680BC704700BF80B483B0BA
:102FF00000AF78600B46FB70FB78002B1CD07B6821
:10300000102B0CD14FF06003CAF200034FF06002A6
:10301000CAF20002126842F040021A602EE04FF03D
:103020008003CAF200034FF08002CAF20002126865
:1030300042F040021A6021E07B68102B0FD14FF064
:103040006002CAF200024FF06003CAF2000319687E
:103050004FF6BF73C0F20F030B4013600EE04FF04A
:103060008002CAF200024FF08003CAF2000319681E
:103070004FF6BF73C0F20F030B40136007F10C074C
:10308000BD4680BC704700BF80B485B000AF78609B
:103090004FF00003FB607B68102B06D14FF06003FC
:1030A000CAF200035B69FB6005E04FF08003CAF2DF
:1030B00000035B69FB60FB68184607F11407BD4617
:1030C00080BC704780B485B000AFF860B96013462B
:1030D000FB71FB79002B2DD0FB68102B0CD14FF02E
:1030E0006003CAF200034FF06002CAF200025168A6
:1030F000BA680A435A6050E0FB68B3F5807F0CD190
:103100004FF08003CAF200034FF08002CAF20002BF
:103110005168BA680A435A603FE04FF0A003CAF210
:1031200000034FF0A002CAF200025168BA680A43D5
:103130005A6032E0FB68102B0ED14FF06003CAF2E8
:1031400000034FF06002CAF200025168BA686FEAE9
:1031500002020A405A6020E0FB68B3F5807F0ED17E
:103160004FF08003CAF200034FF08002CAF200025F
:103170005168BA686FEA02020A405A600DE04FF0E7
:10318000A003CAF200034FF0A002CAF20002516885
:10319000BA686FEA02020A405A6007F11407BD4696
:1031A00080BC704780B485B000AF786039604FF064
:1031B0000003FB734FF00003BB607B68102B06D14C
:1031C0004FF06003CAF200035B68BB6010E07B68ED
:1031D000B3F5807F06D14FF08003CAF200035B682D
:1031E000BB6005E04FF0A003CAF200035B68BB6060
:1031F000BA683B681340002B03D04FF00103FB7308
:1032000002E04FF00003FB73FB7B184607F1140745
:10321000BD4680BC704700BF80B483B000AF78600B
:1032200039607B68102B0ED14FF06003CAF20003A7
:103230004FF06002CAF2000251683A686FEA020277
:103240000A405A6020E07B68B3F5807F0ED14FF0D2
:103250008003CAF200034FF08002CAF200025168F4
:103260003A686FEA02020A405A600DE04FF0A0038C
:10327000CAF200034FF0A002CAF2000251683A6895
:103280006FEA02020A405A6007F10C07BD4680BC93
:10329000704700BF80B487B000AF786039604FF0EE
:1032A0000003FB754FF000033B614FF00003FB6030
:1032B0004FF00003BB607B68102B06D14FF060031A
:1032C000CAF200035B683B6110E07B68B3F5807F66
:1032D00006D14FF08003CAF200035B683B6105E052
:1032E0004FF0A003CAF200035B683B613A693B6898
:1032F0001340FB603B684FEAD3023B691340BB605D
:10330000FB68002B06D0BB68002B03D04FF00103F5
:10331000FB7502E04FF00003FB75FB7D184607F1DB
:103320001C07BD4680BC704780B483B000AF786096
:1033300039607B68102B10D14FF06003CAF2000394
:103340004FF06002CAF2000251683A684FEAD202B6
:103350006FEA02020A405A6024E07B68B3F5807F7E
:1033600010D14FF08003CAF200034FF08002CAF27E
:10337000000251683A684FEAD2026FEA02020A403C
:103380005A600FE04FF0A003CAF200034FF0A00212
:10339000CAF2000251683A684FEAD2026FEA0202AA
:1033A0000A405A6007F10C07BD4680BC704700BF59
:1033B00080B582B000AF78607A684FF40063C4F2E1
:1033C00001039A420CD14FF004004FF0010100F0CC
:1033D0005BFF4FF004004FF0000100F055FF76E076
:1033E0007A684FF44063C4F201039A420CD14FF063
:1033F00008004FF0010100F047FF4FF008004FF0C8
:10340000000100F041FF62E07A684FF48053C4F29B
:1034100001039A420CD14FF010004FF0010100F06F
:1034200033FF4FF010004FF0000100F02DFF4EE091
:103430007A684FF4A053C4F201039A420CD14FF0C2
:1034400020004FF0010100F01FFF4FF020004FF06F
:10345000000100F019FF3AE07A684FF4C053C4F25B
:1034600001039A420CD14FF040004FF0010100F0EF
:103470000BFF4FF040004FF0000100F005FF26E089
:103480007A684FF4E053C4F201039A420CD14FF032
:1034900080004FF0010100F0F7FE4FF080004FF088
:1034A000000100F0F1FE12E07A684FF40053C4F21C
:1034B00001039A420BD14FF480704FF0010100F0EC
:1034C000E3FE4FF480704FF0000100F0DDFE07F1E5
:1034D0000807BD4680BD00BF80B500AF4FF00100BA
:1034E0004FF0010100F0D0FE4FF001004FF000015D
:1034F00000F0CAFE80BD00BF80B489B000AF786024
:1035000039604FF00003FB614FF000033B614FF067
:103510000003BB614FF00003FB604FF000037B61D1
:103520004FF00003BB603B68DB7803F00F03FB61E7
:103530003B68DB7803F01003002B04D03B689B78DA
:10354000FA691343FB613B681B88DBB2002B4ED04A
:103550007B681B687B614FF00003BB6141E0BB6986
:103560004FF0010202FA03F3FB603B681B881A4626
:10357000FB6813403B613A69FB689A422DD1BB69F5
:103580004FEA8303FB60FB684FF00F0202FA03F37C
:10359000BB60BB686FEA03037A6913407B61FB6819
:1035A000FA6902FA03F37A6913437B613B68DB78BB
:1035B000282B07D1BB694FF0010202FA03F27B68A6
:1035C0005A610AE03B68DB78482B06D1BB694FF0B3
:1035D000010202FA03F27B681A61BB6903F101037D
:1035E000BB61BB69072BBAD97B687A691A603B68F3
:1035F0001B88FF2B53D97B685B687B614FF000030E
:10360000BB6146E0BB6903F108034FF0010202FA17
:1036100003F3FB603B681B881A46FB6813403B6161
:103620003A69FB689A4230D1BB694FEA8303FB6079
:10363000FB684FF00F0202FA03F3BB60BB686FEA4E
:1036400003037A6913407B61FB68FA6902FA03F3AA
:103650007A6913437B613B68DB78282B08D1BB690F
:1036600003F108034FF0010202FA03F27B685A618A
:103670003B68DB78482B08D1BB6903F108034FF0A6
:10368000010202FA03F27B681A61BB6903F10103CC
:10369000BB61BB69072BB5D97B687A695A6007F1B2
:1036A0002407BD4680BC704780B483B000AF78600B
:1036B0007B684FF6FF721A807B684FF002029A70A7
:1036C0007B684FF00402DA7007F10C07BD4680BC3E
:1036D000704700BF80B485B000AF78600B467B8038
:1036E0004FF00003FB737B689A687B881340002BC4
:1036F00003D04FF00103FB7302E04FF00003FB73B4
:10370000FB7B184607F11407BD4680BC704700BF1D
:1037100080B483B000AF78607B689B689BB218462A
:1037200007F10C07BD4680BC704700BF80B485B070
:1037300000AF78600B467B804FF00003FB737B6823
:10374000DA687B881340002B03D04FF00103FB7332
:1037500002E04FF00003FB73FB7B184607F11407F0
:10376000BD4680BC704700BF80B483B000AF7860B6
:103770007B68DB689BB2184607F10C07BD4680BC2E
:10378000704700BF80B483B000AF78600B467B8089
:103790007A887B681A6107F10C07BD4680BC7047C8
:1037A00080B483B000AF78600B467B807A887B68FA
:1037B0005A6107F10C07BD4680BC704780B483B0E6
:1037C00000AF786013460A467A807B707B78002BC6
:1037D00003D07A887B681A6102E07A887B685A6134
:1037E00007F10C07BD4680BC704700BF80B483B0B2
:1037F00000AF78600B467B807A887B68DA6007F1DF
:103800000C07BD4680BC704780B485B000AF7860BF
:103810000B467B804FF48033FB607B88FA68134350
:10382000FB607B68FA689A617A887B689A617B683A
:10383000FA689A617B689B69FB607B689B69FB60A7
:1038400007F11407BD4680BC704700BF80B485B047
:1038500000AF02460B46FA71BB714FF00003FB60EC
:103860004FF00003C4F201031B68FB60FA684FF6D7
:1038700080731340FB60FB794FEA0313FA6813432C
:10388000FB60BB79FA681343FB604FF00003C4F29E
:103890000103FA681A6007F11407BD4680BC70473F
:1038A00080B483B000AF0346FB714FF01C03C4F239
:1038B0002023FA791A6007F10C07BD4680BC7047D7
:1038C00080B487B000AF78600B46FB704FF0000308
:1038D0003B614FF00003FB604FF000037B614FF052
:1038E0000003BB607B68002B06DA4FF00003C4F2D4
:1038F0000103DB697B6105E04FF00003C4F20103C3
:103900005B687B617B6803F470234FEA1343BB6001
:103910007B684FEA03434FEA13433B617B6803F440
:103920004013B3F5401F10D17B6923F070637B61B6
:103930004FF00003C4F201034FF00002C4F2010291
:10394000526822F070625A6026E07B6803F48013AC
:10395000002B10D0BB684FF0030202FA03F3FB60A8
:10396000FB686FEA03037A6913407B617B6943F06C
:1039700070637B6110E07B684FEA53534FEA031397
:103980003A6902FA03F36FEA03037A6913407B6131
:103990007B6943F070637B61FB78002B0AD07B6806
:1039A0004FEA53534FEA03133A6902FA03F37A6971
:1039B00013437B617B68002B06DA4FF00003C4F2EF
:1039C00001037A69DA6105E04FF00003C4F20103F4
:1039D0007A695A6007F11C07BD4680BC704700BF7A
:1039E00090B484B000AF02460B46FA71BB714FF041
:1039F0000003FB60BB7903F003034FEA83034FF03E
:103A00000F0202FA03F3FB604FF00003C4F201035C
:103A1000BA794FEA9202D2B210464FF00002C4F2D5
:103A20000102B9794FEA9101C9B201F1020152F8DC
:103A30002110FA686FEA0202114000F1020243F815
:103A400022104FF00003C4F20103BA794FEA920248
:103A5000D2B210464FF00002C4F20102B9794FEA27
:103A60009101C9B201F1020152F82110FC79BA7931
:103A700002F003024FEA820204FA02F2114300F15B
:103A8000020243F8221007F11007BD4690BC7047B0
:103A900080B483B000AF78604FF0DC03C4F2202321
:103AA0007A681A6007F10C07BD4680BC704700BFFA
:103AB00080B400AF4FF48053C4F202034FF480523D
:103AC000C4F20202126842F001021A604FF48052FE
:103AD000C4F202024FF48053C4F2020359684FF05B
:103AE0000003CFF6FF030B4053604FF48053C4F242
:103AF00002034FF48052C4F20202126822F0847270
:103B000022F480321A604FF48053C4F202034FF45F
:103B10008052C4F20202126822F480221A604FF42A
:103B20008053C4F202034FF48052C4F2020252687E
:103B300022F4FE025A604FF48053C4F202034FF4A1
:103B40001F029A60BD4680BC704700BF80B483B03E
:103B500000AF78604FF48053C4F202034FF48052F8
:103B6000C4F20202126822F480321A604FF48053C9
:103B7000C4F202034FF48052C4F20202126822F42B
:103B800080221A607B68B3F5803F03D0B3F5802FA5
:103B90000DD019E04FF48053C4F202034FF4805269
:103BA000C4F20202126842F480321A600DE04FF44F
:103BB0008053C4F202034FF48052C4F2020212682E
:103BC00042F4A0221A6000E000BF07F10C07BD46D6
:103BD00080BC704780B582B000AF4FF000033B60FF
:103BE0004FF00003FB714FF00003BB714FF0310049
:103BF00000F0CEFB0346BB713B6803F101033B6061
:103C00003B68B3F5A06F02D0BB79002BEED04FF02C
:103C1000310000F0BDFB0346002B03D04FF0010341
:103C2000FB7102E04FF00003FB71FB79184607F1CE
:103C30000807BD4680BD00BF80B485B000AF034615
:103C4000FB714FF00003FB604FF48053C4F202039A
:103C50001B68FB60FB6823F0F803FB60FB794FEA0D
:103C6000C303FA681343FB604FF48053C4F20203AA
:103C7000FA681A6007F11407BD4680BC704700BFA0
:103C800080B483B000AF0346FB714FF00003C4F271
:103C90004223FA791A6007F10C07BD4680BC7047D1
:103CA00080B485B000AF786039604FF00003FB60EE
:103CB0004FF48053C4F202035B68FB60FB6823F49B
:103CC0007C13FB607A683B681343FA681343FB601C
:103CD0004FF48053C4F20203FA685A6007F11407E4
:103CE000BD4680BC704700BF80B483B000AF0346C0
:103CF000FB714FF06003C4F24223FA791A6007F1B6
:103D00000C07BD4680BC704780B485B000AF7860BA
:103D10004FF00003FB604FF48053C4F202035B6872
:103D2000FB60FB6823F00303FB60FA687B681343C6
:103D3000FB604FF48053C4F20203FA685A6007F143
:103D40001407BD4680BC704780B400AF4FF4805369
:103D5000C4F202035B68DBB203F00C03DBB218466B
:103D6000BD4680BC704700BF80B485B000AF7860AE
:103D70004FF00003FB604FF48053C4F202035B6812
:103D8000FB60FB6823F0F003FB60FA687B68134379
:103D9000FB604FF48053C4F20203FA685A6007F1E3
:103DA0001407BD4680BC704780B485B000AF786012
:103DB0004FF00003FB604FF48053C4F202035B68D2
:103DC000FB60FB6823F4E063FB60FA687B681343E5
:103DD000FB604FF48053C4F20203FA685A6007F1A3
:103DE0001407BD4680BC704780B485B000AF7860D2
:103DF0004FF00003FB604FF48053C4F202035B6892
:103E0000FB60FB6823F46053FB607B684FEAC303ED
:103E1000FA681343FB604FF48053C4F20203FA685C
:103E20005A6007F11407BD4680BC704780B483B068
:103E300000AF02460B46FA71BB71BB79002B0ED066
:103E400041F20903C4F2020341F20902C4F2020280
:103E50001278D1B2FA790A43D2B21A7010E041F264
:103E60000903C4F2020341F20902C4F20202127809
:103E7000D1B2FA796FEA0202D2B20A40D2B21A7013
:103E800007F10C07BD4680BC704700BF80B483B00B
:103E900000AF78604FF0D803C4F242237A681A600A
:103EA00007F10C07BD4680BC704700BF80B485B0E9
:103EB00000AF78604FF00003FB604FF48053C4F212
:103EC00002035B68FB60FB6823F44043FB60FA6815
:103ED0007B681343FB604FF48053C4F20203FA681B
:103EE0005A6007F11407BD4680BC704780B483B0A8
:103EF00000AF0346FB714FF48153C4F202034FF04D
:103F000000021A704FF48153C4F202034FF0000212
:103F10001A70FB79012B02D0042B08D00FE04FF46C
:103F20008153C4F202034FF001021A7008E04FF40B
:103F30008153C4F202034FF005021A7000E000BF83
:103F400007F10C07BD4680BC704700BF80B483B04A
:103F500000AF0346FB714FF49063C4F24223FA7939
:103F60001A6007F10C07BD4680BC704780B483B06F
:103F700000AF78604FF48053C4F202034FF48052D4
:103F8000C4F20202116A7A680A431A6207F10C0746
:103F9000BD4680BC704700BF80B483B000AF03460D
:103FA000FB7140F23C43C4F24223FA791A6007F1F4
:103FB0000C07BD4680BC704780B487B000AF786006
:103FC0004FF000037B614FF000033B614FF00003B3
:103FD000FB604FF00003BB604FF48053C4F2020358
:103FE0005B6803F00C037B617B69042B0AD0082B10
:103FF0000FD0002B4DD17A684FF49053C0F27A0362
:1040000013604DE07A684FF49053C0F27A03136066
:1040100046E04FF48053C4F202035B6803F470136C
:104020003B614FF48053C4F202035B6803F48033B6
:10403000FB603B694FEA934303F102033B61FB687A
:10404000002B09D13A694FF41063C0F23D0303FB22
:1040500002F27B681A6023E04FF48053C4F202033B
:104060005B6803F40033002B09D03A694FF4106306
:10407000C0F23D0303FB02F27B681A6010E03A696C
:104080004FF49053C0F27A0303FB02F27B681A608C
:1040900006E07A684FF49053C0F27A03136000BFD1
:1040A0004FF48053C4F202035B6803F0F0037B61BA
:1040B0007B694FEA13137B6140F21403C2F20003E1
:1040C0007A699B181B78DBB2BB607B681A68BB6897
:1040D00022FA03F27B685A604FF48053C4F2020361
:1040E0005B6803F4E0637B617B694FEA13237B61C8
:1040F00040F21403C2F200037A699B181B78DBB20A
:10410000BB607B685A68BB6822FA03F27B689A60DE
:104110004FF48053C4F202035B6803F460537B6185
:104120007B694FEAD3237B6140F21403C2F20003A0
:104130007A699B181B78DBB2BB607B685A68BB68E6
:1041400022FA03F27B68DA604FF48053C4F2020370
:104150005B6803F440437B617B694FEA93337B6187
:1041600040F22403C2F200037A699B181B78DBB289
:10417000BB607B68DA68BB68B2FBF3F27B681A61EC
:1041800007F11C07BD4680BC704700BF80B483B0F8
:1041900000AF78600B46FB70FB78002B0CD04FF41F
:1041A0008053C4F202034FF48052C4F202025169F8
:1041B0007A680A435A610DE04FF48053C4F2020357
:1041C0004FF48052C4F2020251697A686FEA020227
:1041D0000A405A6107F10C07BD4680BC704700BF1A
:1041E00080B483B000AF78600B46FB70FB78002B87
:1041F0000CD04FF48053C4F202034FF48052C4F247
:10420000020291697A680A439A610DE04FF4805383
:10421000C4F202034FF48052C4F2020291697A6838
:104220006FEA02020A409A6107F10C07BD4680BCA2
:10423000704700BF80B483B000AF78600B46FB705E
:10424000FB78002B0CD04FF48053C4F202034FF4E0
:104250008052C4F20202D1697A680A43DA610DE041
:104260004FF48053C4F202034FF48052C4F20202AE
:10427000D1697A686FEA02020A40DA6107F10C0735
:10428000BD4680BC704700BF80B483B000AF78608B
:104290000B46FB70FB78002B0CD04FF48053C4F21C
:1042A00002034FF48052C4F20202D1687A680A43D2
:1042B000DA600DE04FF48053C4F202034FF48052F1
:1042C000C4F20202D1687A686FEA02020A40DA6038
:1042D00007F10C07BD4680BC704700BF80B483B0B7
:1042E00000AF78600B46FB70FB78002B0CD04FF4CE
:1042F0008053C4F202034FF48052C4F202021169E7
:104300007A680A431A610DE04FF48053C4F2020345
:104310004FF48052C4F2020211697A686FEA020215
:104320000A401A6107F10C07BD4680BC704700BF08
:1043300080B483B000AF0346FB714FF48863C4F2CE
:104340004223FA791A6007F10C07BD4680BC70471A
:1043500080B483B000AF0346FB714FF04C03C4F24E
:104360004223FA791A6007F10C07BD4680BC7047FA
:1043700080B483B000AF0346FB7141F20703C4F27F
:104380000203FA791A7007F10C07BD4680BC70472A
:1043900080B487B000AF0346FB714FF00003FB60B1
:1043A0004FF000037B614FF00003FB74FB794FEA91
:1043B0005313DBB2FB60FB68012B06D14FF4805333
:1043C000C4F202031B687B610FE0FB68022B06D17D
:1043D0004FF48053C4F202031B6A7B6105E04FF483
:1043E0008053C4F202035B6A7B61FB7903F01F0315
:1043F000FB60FB687A6922FA03F303F00103DBB286
:10440000002B03D04FF00103FB7402E04FF00003D8
:10441000FB74FB7C184607F11C07BD4680BC704747
:1044200080B400AF4FF48053C4F202034FF48052C3
:10443000C4F20202526A42F080725A62BD4680BCE7
:10444000704700BF80B485B000AF0346FB714FF0EA
:104450000003FB734FF48053C4F202039A68FB79A4
:104460001340002B03D04FF00103FB7302E04FF029
:104470000003FB73FB7B184607F11407BD4680BCA5
:10448000704700BF80B483B000AF0346FB7141F2B8
:104490000A03C4F20203FA791A7007F10C07BD4649
:1044A00080BC704780B582B000AF78607A684FF406
:1044B0006053C4F201039A420CD14FF480404FF094
:1044C0000101FFF7E1FE4FF480404FF00001FFF7DC
:1044D000DBFE4EE07A684FF48843C4F200039A4250
:1044E0000CD14FF400304FF00101FFF7F7FE4FF40D
:1044F00000304FF00001FFF7F1FE3AE07A684FF428
:104500009043C4F200039A420CD14FF480204FF044
:104510000101FFF7E3FE4FF480204FF00001FFF7A9
:10452000DDFE26E07A684FF49843C4F200039A4215
:104530000CD14FF400204FF00101FFF7CFFE4FF4F4
:1045400000204FF00001FFF7C9FE12E07A684FF437
:10455000A043C4F200039A420BD14FF480104FF0F5
:104560000101FFF7BBFE4FF480104FF00001FFF791
:10457000B5FE07F10807BD4680BD00BF80B58CB011
:1045800000AF786039604FF00003FB624FF000032A
:10459000BB624FF000037B624FF000033B624FF0C1
:1045A0000003FB617B68FB617B681B8A9BB2FB623B
:1045B000FA6A4CF6FF731340FB623B68DB88FA6AC9
:1045C0001343FB62FB6A9AB27B681A827B689B8901
:1045D0009BB2FB62FA6A4EF6F3131340FB623B6830
:1045E0009A883B681B8913439AB23B685B891343E3
:1045F0009BB2FA6A1343FB62FB6A9AB27B689A81A8
:104600007B689B8A9BB2FB62FA6A4FF6FF431340BA
:10461000FB623B689B89FA6A1343FB62FB6A9AB2AE
:104620007B689A8207F108031846FFF7C5FCFA6910
:104630004FF46053C4F201039A4202D17B69BB621A
:1046400001E03B69BB627B689B899BB29BB21BB25A
:10465000002B0FDABA6A13464FEA83039B184FEA1E
:1046600083029A183B681B684FEA4303B2FBF3F3DB
:104670007B620EE0BA6A13464FEA83039B184FEA47
:1046800083029A183B681B684FEA8303B2FBF3F37B
:104690007B627A6A48F21F53C5F2EB13A3FB021345
:1046A0004FEA53134FEA0313FB62FB6A4FEA1313FB
:1046B0004FF0640202FB03F37A6AD31A3B627B6811
:1046C0009B899BB29BB21BB2002B12DA3B6A4FEA6A
:1046D000C30303F1320248F21F53C5F2EB13A3FBED
:1046E00002134FEA531303F00703FA6A1343FB6202
:1046F00011E03B6A4FEA031303F1320248F21F5301
:10470000C5F2EB13A3FB02134FEA531303F00F039D
:10471000FA6A1343FB62FB6A9AB27B681A8107F15B
:104720003007BD4680BD00BF80B483B000AF786065
:104730007B684FF416521A607B684FF000029A8033
:104740007B684FF00002DA807B684FF000021A812C
:104750007B684FF00C025A817B684FF000029A810F
:1047600007F10C07BD4680BC704700BF80B485B020
:1047700000AF786039604FF00003FB607B681B8AF4
:104780009BB2FB60FA684FF2FF031340FB603B688B
:104790001A883B685B8813439AB23B689B88134333
:1047A0009AB23B68DB8813439BB2FA681343FB6001
:1047B000FB689AB27B681A8207F11407BD4680BC79
:1047C000704700BF80B483B000AF78607B684FF063
:1047D00000021A807B684FF000025A807B684FF01D
:1047E00000029A807B684FF00002DA8007F10C0724
:1047F000BD4680BC704700BF80B483B000AF786016
:104800000B46FB70FB78002B08D07B689B899BB222
:1048100043F400539AB27B689A8107E07B689B89D6
:104820009BB223F400539AB27B689A8107F10C077C
:10483000BD4680BC704700BF80B487B000AF7860D1
:1048400013460A467A807B704FF000033B614FF0BD
:104850000003FB604FF00003BB604FF000037B617F
:104860007B687B617B88DBB24FEA5313DBB23B6131
:104870007B8803F01F03FB60FB684FF0010202FA24
:1048800003F3BB603B69012B04D17B6903F10C038B
:104890007B610BE03B69022B04D17B6903F11003C0
:1048A0007B6103E07B6903F114037B617B78002B60
:1048B00006D07B697A691168BA680A431A6007E012
:1048C0007B697A691168BA686FEA02020A401A6065
:1048D00007F11C07BD4680BC704700BF80B483B0A1
:1048E00000AF786013460A467A807B707B78002B95
:1048F00008D07B689B8A9AB27B8813439AB27B6804
:104900009A820AE07B689B8A9AB27B886FEA0303EB
:104910009BB213409AB27B689A8207F10C07BD469E
:1049200080BC704780B483B000AF78600B46FB70EA
:104930007B681B8A9BB223F00F039AB27B681A82B2
:104940007B681B8A9AB2FB789BB213439AB27B684E
:104950001A8207F10C07BD4680BC704780B483B053
:1049600000AF78600B467B807B689B899BB223F409
:1049700000639AB27B689A817B689B899AB27B8834
:1049800013439AB27B689A8107F10C07BD4680BC3D
:10499000704700BF80B483B000AF78600B46FB70F7
:1049A000FB78002B08D07B689B899BB243F0020305
:1049B0009AB27B689A8107E07B689B899BB223F05F
:1049C00002039AB27B689A8107F10C07BD4680BC4E
:1049D000704700BF80B483B000AF78600B467B8027
:1049E0007B681B8A9BB223F020039AB27B681A82F1
:1049F0007B681B8A9AB27B8813439AB27B681A82BF
:104A000007F10C07BD4680BC704700BF80B483B07F
:104A100000AF78600B46FB70FB78002B08D07B68FA
:104A20001B8A9BB243F480439AB27B681A8207E0E8
:104A30007B681B8A9BB223F480439AB27B681A82FC
:104A400007F10C07BD4680BC704700BF80B483B03F
:104A500000AF78600B467B807B884FEAC3534FEAF8
:104A6000D3539AB27B689A8007F10C07BD4680BC8D
:104A7000704700BF80B483B000AF78607B689B88CC
:104A80009BB24FEAC3534FEAD3539BB2184607F188
:104A90000C07BD4680BC704780B483B000AF78601F
:104AA0007B689B899BB243F001039AB27B689A8131
:104AB00007F10C07BD4680BC704700BF80B483B0CF
:104AC00000AF78600B46FB707B681B8B9BB2DBB240
:104AD0009AB27B681A837B681B8B9AB2FB789BB275
:104AE0004FEA03239BB213439AB27B681A8307F100
:104AF0000C07BD4680BC704780B483B000AF7860BF
:104B00000B46FB707B681B8B9BB223F0FF039AB2B2
:104B10007B681A837B681B8B9AB2FB789BB213432A
:104B20009AB27B681A8307F10C07BD4680BC7047B8
:104B300080B483B000AF78600B46FB70FB78002B2D
:104B400008D07B689B8A9BB243F020039AB27B68B3
:104B50009A8207E07B689B8A9BB223F020039AB27B
:104B60007B689A8207F10C07BD4680BC704700BF86
:104B700080B483B000AF78600B46FB70FB78002BED
:104B800008D07B689B8A9BB243F010039AB27B6883
:104B90009A8207E07B689B8A9BB223F010039AB24B
:104BA0007B689A8207F10C07BD4680BC704700BF46
:104BB00080B483B000AF78600B46FB70FB78002BAD
:104BC00008D07B689B8A9BB243F008039AB27B684B
:104BD0009A8207E07B689B8A9BB223F008039AB213
:104BE0007B689A8207F10C07BD4680BC704700BF06
:104BF00080B483B000AF78600B46FB70FB78002B6D
:104C00000AD07B689B899BB26FEA43436FEA5343A8
:104C10009AB27B689A8109E07B689B899BB24FEAD4
:104C200043434FEA53439AB27B689A8107F10C07DA
:104C3000BD4680BC704700BF80B483B000AF7860D1
:104C40000B46FB70FB78002B08D07B689B8A9BB2DD
:104C500043F400639AB27B689A8207E07B689B8A80
:104C60009BB223F400639AB27B689A8207F10C0727
:104C7000BD4680BC704700BF80B483B000AF786091
:104C80000B467B807B689B8A9BB223F004039AB21D
:104C90007B689A827B689B8A9AB27B8813439AB21C
:104CA0007B689A8207F10C07BD4680BC704700BF45
:104CB00080B483B000AF78600B46FB70FB78002BAC
:104CC00008D07B689B8A9BB243F002039AB27B6850
:104CD0009A8207E07B689B8A9BB223F002039AB218
:104CE0007B689A8207F10C07BD4680BC704700BF05
:104CF00080B485B000AF78600B467B804FF0000336
:104D0000FB737B681B889AB27B8813409BB2002B95
:104D100003D04FF00103FB7302E04FF00003FB737D
:104D2000FB7B184607F11407BD4680BC704700BFE7
:104D300080B483B000AF78600B467B807B886FEADD
:104D400003039AB27B681A8007F10C07BD4680BC4A
:104D5000704700BF80B487B000AF78600B467B809F
:104D60004FF00003FB604FF000037B614FF0000346
:104D7000BB604FF00003FB747B88DBB24FEA531338
:104D8000DBB2BB607B8803F01F037B617B694FF064
:104D9000010202FA03F37B61BB68012B06D17B6839
:104DA0009B899BB27A6913407B610FE0BB68022B41
:104DB00006D17B681B8A9BB27A6913407B6105E050
:104DC0007B689B8A9BB27A6913407B617B884FEA40
:104DD00013239BB2FB60FB684FF0010202FA03F35E
:104DE000FB607B681B889BB2FA681340FB607B69A1
:104DF000002B06D0FB68002B03D04FF00103FB749F
:104E000002E04FF00003FB74FB7C184607F11C071F
:104E1000BD4680BC704700BF80B485B000AF7860ED
:104E20000B467B804FF00003FB814FF00003BB81FA
:104E30007B884FEA1323FB81FB894FF0010202FAC2
:104E400003F3BB81BB896FEA03039AB27B681A80C4
:104E500007F11407BD4680BC704700BF6C4E0008C8
:044E60001D06000823
:104E64006A686168210A0D004A7573742074657359
:104E74007420636F6465210A0D0000004861726448
:104E84004661756C742048616E646C65720A00003A
:104E94002A2A2A2A2A2A2A2A42494B45205350459B
:104EA40045442050524F4A4543542A2A2A2A2A2A42
:104EB400000000005B79756775692E68755D0000F8
:104EC40048656C6C6F2125640A0D00000000000029
:104ED4000000000000000000000000000000183C7A
:104EE4003C3C18181800181800000000006666669C
:104EF4002400000000000000000000000000006C1E
:104F04006CFE6C6C6CFE6C6C0000000018187CC6A7
:104F1400C2C07C0686C67C18180000000000000091
:104F2400C2C60C183060C686000000000000386C51
:104F34006C3876DCCCCCCC7600000000003030300D
:104F440060000000000000000000000000000C18D9
:104F5400303030303030180C0000000000003018C1
:104F64000C0C0C0C0C0C18300000000000000000AD
:104F740000663CFF3C6600000000000000000000EA
:104F84000018187E1818000000000000000000003F
:104F94000000000000181818300000000000000095
:104FA400000000FE000000000000000000000000FF
:104FB40000000000000018180000000000000000BD
:104FC40002060C183060C0800000000000007CC69F
:104FD400C6CED6D6E6C6C67C00000000000018384F
:104FE400781818181818187E0000000000007CC6F5
:104FF400060C183060C0C6FE0000000000007CC62D
:1050040006063C060606C67C0000000000000C1CD8
:105014003C6CCCFE0C0C0C1E000000000000FEC01A
:10502400C0C0FC0E0606C67C00000000000038600C
:10503400C0C0FCC6C6C6C67C000000000000FEC698
:1050440006060C18303030300000000000007CC62A
:10505400C6C67CC6C6C6C67C0000000000007CC66E
:10506400C6C67E0606060C7800000000000000009C
:1050740018180000001818000000000000000000CC
:105084001818000000181830000000000000000686
:105094000C18306030180C060000000000000000FE
:1050A4000000FE0000FE00000000000000000060A0
:1050B40030180C060C1830600000000000007CC69C
:1050C400C60C181818001818000000000000007C16
:1050D400C6C6DEDEDEDCC07C000000000000103846
:1050E4006CC6C6FEC6C6C6C6000000000000FC664C
:1050F40066667C66666666FC0000000000003C662E
:10510400C2C0C0C0C0C2663C000000000000F86C11
:105114006666666666666CF8000000000000FE665F
:1051240062687868606266FE000000000000FE6647
:1051340062687868606060F00000000000003C660F
:10514400C2C0C0DEC6C6663A000000000000C6C683
:10515400C6C6FEC6C6C6C6C60000000000003C188F
:10516400181818181818183C0000000000001E0C2D
:105174000C0C0C0CCCCCCC78000000000000E666D3
:105184006C6C78786C6666E6000000000000F060E5
:1051940060606060606266FE000000000000C6EEB1
:1051A400FEFED6C6C6C6C6C6000000000000C6E69F
:1051B400F6FEDECEC6C6C6C6000000000000386C8F
:1051C400C6C6C6C6C6C66C38000000000000FC6631
:1051D40066667C60606060F00000000000007CC6D1
:1051E400C6C6C6C6C6D6DE7C0C0E00000000FC6631
:1051F40066667C6C666666E60000000000007CC69D
:10520400C660380C06C6C67C0000000000007E7E26
:105214005A1818181818183C000000000000C6C6D8
:10522400C6C6C6C6C6C6C67C000000000000C6C608
:10523400C6C6C6C6C66C3810000000000000C6C64C
:10524400C6C6C6D6D6FE6C6C000000000000C6C6FA
:105254006C6C38386C6CC6C60000000000006666D2
:1052640066663C181818183C000000000000FEC6D2
:10527400860C183060C2C6FE0000000000003C30FE
:10528400303030303030303C00000000000000800E
:10529400C0E070381C0E06020000000000003C0C48
:1052A4000C0C0C0C0C0C0C3C0000000010386CC6F0
:1052B40000000000000000000000000000000000EA
:1052C400000000000000000000FF00003030180063
:1052D40000000000000000000000000000000000CA
:1052E40000780C7CCCCCCC76000000000000E060A0
:1052F40060786C66666666DC0000000000000000F2
:10530400007CC6C0C0C0C67C0000000000001C0CAD
:105314000C3C6CCCCCCCCC7600000000000000002F
:10532400007CC6FEC0C0C67C000000000000386CD3
:105334006460F060606060F0000000000000000045
:105344000076CCCCCCCCCC7C0CCC78000000E060DB
:10535400606C7666666666E6000000000000181859
:10536400003818181818183C000000000000060641
:10537400000E06060606060666663C000000E060AF
:1053840060666C78786C66E60000000000003818EF
:10539400181818181818183C000000000000000025
:1053A40000ECFED6D6D6D6D60000000000000000E1
:1053B40000DC6666666666660000000000000000A9
:1053C400007CC6C6C6C6C67C000000000000000003
:1053D40000DC66666666667C6060F00000000000C3
:1053E4000076CCCCCCCCCC7C0C0C1E000000000095
:1053F40000DC7662606060F00000000000000000E5
:10540400007CC660380CC67C000000000000103030
:1054140030FC30303030361C00000000000000004A
:1054240000CCCCCCCCCCCC7600000000000000003A
:105434000066666666663C18000000000000000016
:1054440000C6C6C6D6D6FE6C0000000000000000F0
:1054540000C66C3838386CC600000000000000003C
:1054640000C6C6C6C6C6C67E060CF800000000000C
:1054740000FECC183060C6FE0000000000000E18CC
:10548400181870181818180E0000000000001818DA
:1054940018180018181818180000000000007018D8
:1054A40018180E181818187000000000000076DC98
:1054B40000000000000000000000000000000000E8
:1054C40010386CC6C6C6FE00000000002530386CDB
:0C54D40058200000202530325800000055
:1054E00000A24A04000000000000000001020304C2
:1054F000060708090000000001020304010203047A
:08550000060708090204060871
:04000005080002618C
:00000001FF
